{
  "_format": "hh-sol-artifact-1",
  "contractName": "MyEpicNFT",
  "sourceName": "contracts/MyEpicNFT.sol",
  "abi": [
    {
      "inputs": [],
      "stateMutability": "nonpayable",
      "type": "constructor"
    },
    {
      "anonymous": false,
      "inputs": [
        {
          "indexed": true,
          "internalType": "address",
          "name": "owner",
          "type": "address"
        },
        {
          "indexed": true,
          "internalType": "address",
          "name": "approved",
          "type": "address"
        },
        {
          "indexed": true,
          "internalType": "uint256",
          "name": "tokenId",
          "type": "uint256"
        }
      ],
      "name": "Approval",
      "type": "event"
    },
    {
      "anonymous": false,
      "inputs": [
        {
          "indexed": true,
          "internalType": "address",
          "name": "owner",
          "type": "address"
        },
        {
          "indexed": true,
          "internalType": "address",
          "name": "operator",
          "type": "address"
        },
        {
          "indexed": false,
          "internalType": "bool",
          "name": "approved",
          "type": "bool"
        }
      ],
      "name": "ApprovalForAll",
      "type": "event"
    },
    {
      "anonymous": false,
      "inputs": [
        {
          "indexed": false,
          "internalType": "address",
          "name": "sender",
          "type": "address"
        },
        {
          "indexed": false,
          "internalType": "uint256",
          "name": "tokenId",
          "type": "uint256"
        }
      ],
      "name": "NewEpicNFTMinted",
      "type": "event"
    },
    {
      "anonymous": false,
      "inputs": [
        {
          "indexed": true,
          "internalType": "address",
          "name": "from",
          "type": "address"
        },
        {
          "indexed": true,
          "internalType": "address",
          "name": "to",
          "type": "address"
        },
        {
          "indexed": true,
          "internalType": "uint256",
          "name": "tokenId",
          "type": "uint256"
        }
      ],
      "name": "Transfer",
      "type": "event"
    },
    {
      "inputs": [
        {
          "internalType": "address",
          "name": "to",
          "type": "address"
        },
        {
          "internalType": "uint256",
          "name": "tokenId",
          "type": "uint256"
        }
      ],
      "name": "approve",
      "outputs": [],
      "stateMutability": "nonpayable",
      "type": "function"
    },
    {
      "inputs": [
        {
          "internalType": "address",
          "name": "owner",
          "type": "address"
        }
      ],
      "name": "balanceOf",
      "outputs": [
        {
          "internalType": "uint256",
          "name": "",
          "type": "uint256"
        }
      ],
      "stateMutability": "view",
      "type": "function"
    },
    {
      "inputs": [
        {
          "internalType": "uint256",
          "name": "tokenId",
          "type": "uint256"
        }
      ],
      "name": "getApproved",
      "outputs": [
        {
          "internalType": "address",
          "name": "",
          "type": "address"
        }
      ],
      "stateMutability": "view",
      "type": "function"
    },
    {
      "inputs": [],
      "name": "getTotalNFTsMintedSoFar",
      "outputs": [
        {
          "internalType": "uint256",
          "name": "",
          "type": "uint256"
        }
      ],
      "stateMutability": "view",
      "type": "function"
    },
    {
      "inputs": [
        {
          "internalType": "address",
          "name": "owner",
          "type": "address"
        },
        {
          "internalType": "address",
          "name": "operator",
          "type": "address"
        }
      ],
      "name": "isApprovedForAll",
      "outputs": [
        {
          "internalType": "bool",
          "name": "",
          "type": "bool"
        }
      ],
      "stateMutability": "view",
      "type": "function"
    },
    {
      "inputs": [],
      "name": "makeAnEpicNFT",
      "outputs": [],
      "stateMutability": "nonpayable",
      "type": "function"
    },
    {
      "inputs": [],
      "name": "name",
      "outputs": [
        {
          "internalType": "string",
          "name": "",
          "type": "string"
        }
      ],
      "stateMutability": "view",
      "type": "function"
    },
    {
      "inputs": [
        {
          "internalType": "uint256",
          "name": "tokenId",
          "type": "uint256"
        }
      ],
      "name": "ownerOf",
      "outputs": [
        {
          "internalType": "address",
          "name": "",
          "type": "address"
        }
      ],
      "stateMutability": "view",
      "type": "function"
    },
    {
      "inputs": [
        {
          "internalType": "uint256",
          "name": "tokenId",
          "type": "uint256"
        }
      ],
      "name": "pickRandomFirstWord",
      "outputs": [
        {
          "internalType": "string",
          "name": "",
          "type": "string"
        }
      ],
      "stateMutability": "view",
      "type": "function"
    },
    {
      "inputs": [
        {
          "internalType": "uint256",
          "name": "tokenId",
          "type": "uint256"
        }
      ],
      "name": "pickRandomSecondWord",
      "outputs": [
        {
          "internalType": "string",
          "name": "",
          "type": "string"
        }
      ],
      "stateMutability": "view",
      "type": "function"
    },
    {
      "inputs": [
        {
          "internalType": "uint256",
          "name": "tokenId",
          "type": "uint256"
        }
      ],
      "name": "pickRandomThirdWord",
      "outputs": [
        {
          "internalType": "string",
          "name": "",
          "type": "string"
        }
      ],
      "stateMutability": "view",
      "type": "function"
    },
    {
      "inputs": [
        {
          "internalType": "address",
          "name": "from",
          "type": "address"
        },
        {
          "internalType": "address",
          "name": "to",
          "type": "address"
        },
        {
          "internalType": "uint256",
          "name": "tokenId",
          "type": "uint256"
        }
      ],
      "name": "safeTransferFrom",
      "outputs": [],
      "stateMutability": "nonpayable",
      "type": "function"
    },
    {
      "inputs": [
        {
          "internalType": "address",
          "name": "from",
          "type": "address"
        },
        {
          "internalType": "address",
          "name": "to",
          "type": "address"
        },
        {
          "internalType": "uint256",
          "name": "tokenId",
          "type": "uint256"
        },
        {
          "internalType": "bytes",
          "name": "_data",
          "type": "bytes"
        }
      ],
      "name": "safeTransferFrom",
      "outputs": [],
      "stateMutability": "nonpayable",
      "type": "function"
    },
    {
      "inputs": [
        {
          "internalType": "address",
          "name": "operator",
          "type": "address"
        },
        {
          "internalType": "bool",
          "name": "approved",
          "type": "bool"
        }
      ],
      "name": "setApprovalForAll",
      "outputs": [],
      "stateMutability": "nonpayable",
      "type": "function"
    },
    {
      "inputs": [
        {
          "internalType": "bytes4",
          "name": "interfaceId",
          "type": "bytes4"
        }
      ],
      "name": "supportsInterface",
      "outputs": [
        {
          "internalType": "bool",
          "name": "",
          "type": "bool"
        }
      ],
      "stateMutability": "view",
      "type": "function"
    },
    {
      "inputs": [],
      "name": "symbol",
      "outputs": [
        {
          "internalType": "string",
          "name": "",
          "type": "string"
        }
      ],
      "stateMutability": "view",
      "type": "function"
    },
    {
      "inputs": [
        {
          "internalType": "uint256",
          "name": "tokenId",
          "type": "uint256"
        }
      ],
      "name": "tokenURI",
      "outputs": [
        {
          "internalType": "string",
          "name": "",
          "type": "string"
        }
      ],
      "stateMutability": "view",
      "type": "function"
    },
    {
      "inputs": [
        {
          "internalType": "address",
          "name": "from",
          "type": "address"
        },
        {
          "internalType": "address",
          "name": "to",
          "type": "address"
        },
        {
          "internalType": "uint256",
          "name": "tokenId",
          "type": "uint256"
        }
      ],
      "name": "transferFrom",
      "outputs": [],
      "stateMutability": "nonpayable",
      "type": "function"
    }
  ],
  "bytecode": "0x608060405260405180610160016040528061012f8152602001620041f961012f913960089080519060200190620000389291906200051c565b5060405180608001604052806040518060400160405280600581526020017f537570657200000000000000000000000000000000000000000000000000000081525081526020016040518060400160405280600681526020017f53706f6f6b79000000000000000000000000000000000000000000000000000081525081526020016040518060400160405280600781526020017f416d617a696e670000000000000000000000000000000000000000000000000081525081526020016040518060400160405280600581526020017f4372617a79000000000000000000000000000000000000000000000000000000815250815250600990600462000140929190620005ad565b5060405180608001604052806040518060400160405280600481526020017f486561640000000000000000000000000000000000000000000000000000000081525081526020016040518060400160405280600381526020017f41726d000000000000000000000000000000000000000000000000000000000081525081526020016040518060400160405280600381526020017f457965000000000000000000000000000000000000000000000000000000000081525081526020016040518060400160405280600381526020017f4c65670000000000000000000000000000000000000000000000000000000000815250815250600a90600462000248929190620005ad565b5060405180608001604052806040518060400160405280600781526020017f5468726f7765720000000000000000000000000000000000000000000000000081525081526020016040518060400160405280600681526020017f5368696e6572000000000000000000000000000000000000000000000000000081525081526020016040518060400160405280600681526020017f4c6561766572000000000000000000000000000000000000000000000000000081525081526020016040518060400160405280600681526020017f486f6c6465720000000000000000000000000000000000000000000000000000815250815250600b90600462000350929190620005ad565b503480156200035e57600080fd5b506040518060400160405280600981526020017f5371756172654e465400000000000000000000000000000000000000000000008152506040518060400160405280600681526020017f53515541524500000000000000000000000000000000000000000000000000008152508160009080519060200190620003e39291906200051c565b508060019080519060200190620003fc9291906200051c565b5050506200044a6040518060400160405280601e81526020017f54686973206973206d79204e465420636f6e74726163742e20576f61682100008152506200045060201b6200122a1760201c565b620007ce565b620004f081604051602401620004679190620006e2565b6040516020818303038152906040527f41304fac000000000000000000000000000000000000000000000000000000007bffffffffffffffffffffffffffffffffffffffffffffffffffffffff19166020820180517bffffffffffffffffffffffffffffffffffffffffffffffffffffffff8381831617835250505050620004f360201b60201c565b50565b60008151905060006a636f6e736f6c652e6c6f679050602083016000808483855afa5050505050565b8280546200052a9062000758565b90600052602060002090601f0160209004810192826200054e57600085556200059a565b82601f106200056957805160ff19168380011785556200059a565b828001600101855582156200059a579182015b82811115620005995782518255916020019190600101906200057c565b5b509050620005a9919062000614565b5090565b82805482825590600052602060002090810192821562000601579160200282015b8281111562000600578251829080519060200190620005ef9291906200051c565b5091602001919060010190620005ce565b5b50905062000610919062000633565b5090565b5b808211156200062f57600081600090555060010162000615565b5090565b5b808211156200065757600081816200064d91906200065b565b5060010162000634565b5090565b508054620006699062000758565b6000825580601f106200067d57506200069e565b601f0160209004906000526020600020908101906200069d919062000614565b5b50565b6000620006ae8262000706565b620006ba818562000711565b9350620006cc81856020860162000722565b620006d781620007bd565b840191505092915050565b60006020820190508181036000830152620006fe8184620006a1565b905092915050565b600081519050919050565b600082825260208201905092915050565b60005b838110156200074257808201518184015260208101905062000725565b8381111562000752576000848401525b50505050565b600060028204905060018216806200077157607f821691505b602082108114156200078857620007876200078e565b5b50919050565b7f4e487b7100000000000000000000000000000000000000000000000000000000600052602260045260246000fd5b6000601f19601f8301169050919050565b613a1b80620007de6000396000f3fe608060405234801561001057600080fd5b50600436106101165760003560e01c806370a08231116100a2578063b88d4fde11610071578063b88d4fde14610305578063c575757a14610321578063c87b56dd14610351578063de9d132f14610381578063e985e9c51461038b57610116565b806370a082311461026b57806395d89b411461029b578063a22cb465146102b9578063b187301f146102d557610116565b8063095ea7b3116100e9578063095ea7b3146101b757806323b872dd146101d35780632de38d68146101ef57806342842e0e1461021f5780636352211e1461023b57610116565b806301ffc9a71461011b578063060475901461014b57806306fdde0314610169578063081812fc14610187575b600080fd5b610135600480360381019061013091906124bd565b6103bb565b6040516101429190612bea565b60405180910390f35b61015361049d565b6040516101609190612e85565b60405180910390f35b6101716104ae565b60405161017e9190612c05565b60405180910390f35b6101a1600480360381019061019c919061250f565b610540565b6040516101ae9190612b5a565b60405180910390f35b6101d160048036038101906101cc9190612481565b6105c5565b005b6101ed60048036038101906101e8919061237b565b6106dd565b005b6102096004803603810190610204919061250f565b61073d565b6040516102169190612c05565b60405180910390f35b6102396004803603810190610234919061237b565b61085b565b005b6102556004803603810190610250919061250f565b61087b565b6040516102629190612b5a565b60405180910390f35b61028560048036038101906102809190612316565b61092d565b6040516102929190612e85565b60405180910390f35b6102a36109e5565b6040516102b09190612c05565b60405180910390f35b6102d360048036038101906102ce9190612445565b610a77565b005b6102ef60048036038101906102ea919061250f565b610bf8565b6040516102fc9190612c05565b60405180910390f35b61031f600480360381019061031a91906123ca565b610d16565b005b61033b6004803603810190610336919061250f565b610d78565b6040516103489190612c05565b60405180910390f35b61036b6004803603810190610366919061250f565b610e96565b6040516103789190612c05565b60405180910390f35b610389610fe8565b005b6103a560048036038101906103a0919061233f565b611196565b6040516103b29190612bea565b60405180910390f35b60007f80ac58cd000000000000000000000000000000000000000000000000000000007bffffffffffffffffffffffffffffffffffffffffffffffffffffffff1916827bffffffffffffffffffffffffffffffffffffffffffffffffffffffff1916148061048657507f5b5e139f000000000000000000000000000000000000000000000000000000007bffffffffffffffffffffffffffffffffffffffffffffffffffffffff1916827bffffffffffffffffffffffffffffffffffffffffffffffffffffffff1916145b806104965750610495826112c3565b5b9050919050565b60006104a9600761132d565b905090565b6060600080546104bd90613119565b80601f01602080910402602001604051908101604052809291908181526020018280546104e990613119565b80156105365780601f1061050b57610100808354040283529160200191610536565b820191906000526020600020905b81548152906001019060200180831161051957829003601f168201915b5050505050905090565b600061054b8261133b565b61058a576040517f08c379a000000000000000000000000000000000000000000000000000000000815260040161058190612de5565b60405180910390fd5b6004600083815260200190815260200160002060009054906101000a900473ffffffffffffffffffffffffffffffffffffffff169050919050565b60006105d08261087b565b90508073ffffffffffffffffffffffffffffffffffffffff168373ffffffffffffffffffffffffffffffffffffffff161415610641576040517f08c379a000000000000000000000000000000000000000000000000000000000815260040161063890612e45565b60405180910390fd5b8073ffffffffffffffffffffffffffffffffffffffff166106606113a7565b73ffffffffffffffffffffffffffffffffffffffff16148061068f575061068e816106896113a7565b611196565b5b6106ce576040517f08c379a00000000000000000000000000000000000000000000000000000000081526004016106c590612d25565b60405180910390fd5b6106d883836113af565b505050565b6106ee6106e86113a7565b82611468565b61072d576040517f08c379a000000000000000000000000000000000000000000000000000000000815260040161072490612e65565b60405180910390fd5b610738838383611546565b505050565b6060600061077161074d846117a2565b60405160200161075d9190612b16565b60405160208183030381529060405261194f565b90506009805490508161078491906131c5565b9050600981815481106107c0577f4e487b7100000000000000000000000000000000000000000000000000000000600052603260045260246000fd5b9060005260206000200180546107d590613119565b80601f016020809104026020016040519081016040528092919081815260200182805461080190613119565b801561084e5780601f106108235761010080835404028352916020019161084e565b820191906000526020600020905b81548152906001019060200180831161083157829003601f168201915b5050505050915050919050565b61087683838360405180602001604052806000815250610d16565b505050565b6000806002600084815260200190815260200160002060009054906101000a900473ffffffffffffffffffffffffffffffffffffffff169050600073ffffffffffffffffffffffffffffffffffffffff168173ffffffffffffffffffffffffffffffffffffffff161415610924576040517f08c379a000000000000000000000000000000000000000000000000000000000815260040161091b90612d65565b60405180910390fd5b80915050919050565b60008073ffffffffffffffffffffffffffffffffffffffff168273ffffffffffffffffffffffffffffffffffffffff16141561099e576040517f08c379a000000000000000000000000000000000000000000000000000000000815260040161099590612d45565b60405180910390fd5b600360008373ffffffffffffffffffffffffffffffffffffffff1673ffffffffffffffffffffffffffffffffffffffff168152602001908152602001600020549050919050565b6060600180546109f490613119565b80601f0160208091040260200160405190810160405280929190818152602001828054610a2090613119565b8015610a6d5780601f10610a4257610100808354040283529160200191610a6d565b820191906000526020600020905b815481529060010190602001808311610a5057829003601f168201915b5050505050905090565b610a7f6113a7565b73ffffffffffffffffffffffffffffffffffffffff168273ffffffffffffffffffffffffffffffffffffffff161415610aed576040517f08c379a0000000000000000000000000000000000000000000000000000000008152600401610ae490612ce5565b60405180910390fd5b8060056000610afa6113a7565b73ffffffffffffffffffffffffffffffffffffffff1673ffffffffffffffffffffffffffffffffffffffff16815260200190815260200160002060008473ffffffffffffffffffffffffffffffffffffffff1673ffffffffffffffffffffffffffffffffffffffff16815260200190815260200160002060006101000a81548160ff0219169083151502179055508173ffffffffffffffffffffffffffffffffffffffff16610ba76113a7565b73ffffffffffffffffffffffffffffffffffffffff167f17307eab39ab6107e8899845ad3d59bd9653f200f220920489ca2b5937696c3183604051610bec9190612bea565b60405180910390a35050565b60606000610c2c610c08846117a2565b604051602001610c189190612aaf565b60405160208183030381529060405261194f565b9050600a8054905081610c3f91906131c5565b9050600a8181548110610c7b577f4e487b7100000000000000000000000000000000000000000000000000000000600052603260045260246000fd5b906000526020600020018054610c9090613119565b80601f0160208091040260200160405190810160405280929190818152602001828054610cbc90613119565b8015610d095780601f10610cde57610100808354040283529160200191610d09565b820191906000526020600020905b815481529060010190602001808311610cec57829003601f168201915b5050505050915050919050565b610d27610d216113a7565b83611468565b610d66576040517f08c379a0000000000000000000000000000000000000000000000000000000008152600401610d5d90612e65565b60405180910390fd5b610d7284848484611982565b50505050565b60606000610dac610d88846117a2565b604051602001610d989190612a8d565b60405160208183030381529060405261194f565b9050600b8054905081610dbf91906131c5565b9050600b8181548110610dfb577f4e487b7100000000000000000000000000000000000000000000000000000000600052603260045260246000fd5b906000526020600020018054610e1090613119565b80601f0160208091040260200160405190810160405280929190818152602001828054610e3c90613119565b8015610e895780601f10610e5e57610100808354040283529160200191610e89565b820191906000526020600020905b815481529060010190602001808311610e6c57829003601f168201915b5050505050915050919050565b6060610ea18261133b565b610ee0576040517f08c379a0000000000000000000000000000000000000000000000000000000008152600401610ed790612dc5565b60405180910390fd5b6000600660008481526020019081526020016000208054610f0090613119565b80601f0160208091040260200160405190810160405280929190818152602001828054610f2c90613119565b8015610f795780601f10610f4e57610100808354040283529160200191610f79565b820191906000526020600020905b815481529060010190602001808311610f5c57829003601f168201915b505050505090506000610f8a6119de565b9050600081511415610fa0578192505050610fe3565b600082511115610fd5578082604051602001610fbd929190612a09565b60405160208183030381529060405292505050610fe3565b610fde846119f5565b925050505b919050565b6032610ff4600761132d565b10611034576040517f08c379a000000000000000000000000000000000000000000000000000000000815260040161102b90612c65565b60405180910390fd5b6000611040600761132d565b9050600061104d8261073d565b9050600061105a83610bf8565b9050600061106784610d78565b9050600083838360405160200161108093929190612a2d565b604051602081830303815290604052905060006008826040516020016110a7929190612a5e565b604051602081830303815290604052905060006110ec836110c784611a9c565b6040516020016110d8929190612ad1565b604051602081830303815290604052611a9c565b90506000816040516020016111019190612b38565b604051602081830303815290604052905061111c3389611c5a565b6111268882611c78565b6111306007611cec565b611153604051806060016040528060258152602001613981602591398933611d02565b7febb98688741ffa4c7589bf325de30cf7becb63de567842e1ccdb6cb949fdc82c3389604051611184929190612bc1565b60405180910390a15050505050505050565b6000600560008473ffffffffffffffffffffffffffffffffffffffff1673ffffffffffffffffffffffffffffffffffffffff16815260200190815260200160002060008373ffffffffffffffffffffffffffffffffffffffff1673ffffffffffffffffffffffffffffffffffffffff16815260200190815260200160002060009054906101000a900460ff16905092915050565b6112c08160405160240161123e9190612c05565b6040516020818303038152906040527f41304fac000000000000000000000000000000000000000000000000000000007bffffffffffffffffffffffffffffffffffffffffffffffffffffffff19166020820180517bffffffffffffffffffffffffffffffffffffffffffffffffffffffff8381831617835250505050611da1565b50565b60007f01ffc9a7000000000000000000000000000000000000000000000000000000007bffffffffffffffffffffffffffffffffffffffffffffffffffffffff1916827bffffffffffffffffffffffffffffffffffffffffffffffffffffffff1916149050919050565b600081600001549050919050565b60008073ffffffffffffffffffffffffffffffffffffffff166002600084815260200190815260200160002060009054906101000a900473ffffffffffffffffffffffffffffffffffffffff1673ffffffffffffffffffffffffffffffffffffffff1614159050919050565b600033905090565b816004600083815260200190815260200160002060006101000a81548173ffffffffffffffffffffffffffffffffffffffff021916908373ffffffffffffffffffffffffffffffffffffffff160217905550808273ffffffffffffffffffffffffffffffffffffffff166114228361087b565b73ffffffffffffffffffffffffffffffffffffffff167f8c5be1e5ebec7d5bd14f71427d1e84f3dd0314c0f7b2291e5b200ac8c7c3b92560405160405180910390a45050565b60006114738261133b565b6114b2576040517f08c379a00000000000000000000000000000000000000000000000000000000081526004016114a990612d05565b60405180910390fd5b60006114bd8361087b565b90508073ffffffffffffffffffffffffffffffffffffffff168473ffffffffffffffffffffffffffffffffffffffff16148061152c57508373ffffffffffffffffffffffffffffffffffffffff1661151484610540565b73ffffffffffffffffffffffffffffffffffffffff16145b8061153d575061153c8185611196565b5b91505092915050565b8273ffffffffffffffffffffffffffffffffffffffff166115668261087b565b73ffffffffffffffffffffffffffffffffffffffff16146115bc576040517f08c379a00000000000000000000000000000000000000000000000000000000081526004016115b390612e05565b60405180910390fd5b600073ffffffffffffffffffffffffffffffffffffffff168273ffffffffffffffffffffffffffffffffffffffff16141561162c576040517f08c379a000000000000000000000000000000000000000000000000000000000815260040161162390612cc5565b60405180910390fd5b611637838383611dca565b6116426000826113af565b6001600360008573ffffffffffffffffffffffffffffffffffffffff1673ffffffffffffffffffffffffffffffffffffffff1681526020019081526020016000206000828254611692919061302f565b925050819055506001600360008473ffffffffffffffffffffffffffffffffffffffff1673ffffffffffffffffffffffffffffffffffffffff16815260200190815260200160002060008282546116e99190612f4e565b92505081905550816002600083815260200190815260200160002060006101000a81548173ffffffffffffffffffffffffffffffffffffffff021916908373ffffffffffffffffffffffffffffffffffffffff160217905550808273ffffffffffffffffffffffffffffffffffffffff168473ffffffffffffffffffffffffffffffffffffffff167fddf252ad1be2c89b69c2b068fc378daa952ba7f163c4a11628f55a4df523b3ef60405160405180910390a4505050565b606060008214156117ea576040518060400160405280600181526020017f3000000000000000000000000000000000000000000000000000000000000000815250905061194a565b600082905060005b6000821461181c5780806118059061317c565b915050600a826118159190612fa4565b91506117f2565b60008167ffffffffffffffff81111561185e577f4e487b7100000000000000000000000000000000000000000000000000000000600052604160045260246000fd5b6040519080825280601f01601f1916602001820160405280156118905781602001600182028036833780820191505090505b5090505b60008514611943576001826118a9919061302f565b9150600a856118b891906131c5565b60306118c49190612f4e565b60f81b818381518110611900577f4e487b7100000000000000000000000000000000000000000000000000000000600052603260045260246000fd5b60200101907effffffffffffffffffffffffffffffffffffffffffffffffffffffffffffff1916908160001a905350600a8561193c9190612fa4565b9450611894565b8093505050505b919050565b60008160405160200161196291906129f2565b6040516020818303038152906040528051906020012060001c9050919050565b61198d848484611546565b61199984848484611dcf565b6119d8576040517f08c379a00000000000000000000000000000000000000000000000000000000081526004016119cf90612c85565b60405180910390fd5b50505050565b606060405180602001604052806000815250905090565b6060611a008261133b565b611a3f576040517f08c379a0000000000000000000000000000000000000000000000000000000008152600401611a3690612e25565b60405180910390fd5b6000611a496119de565b90506000815111611a695760405180602001604052806000815250611a94565b80611a73846117a2565b604051602001611a84929190612a09565b6040516020818303038152906040525b915050919050565b60606000825190506000811415611ac55760405180602001604052806000815250915050611c55565b60006003600283611ad69190612f4e565b611ae09190612fa4565b6004611aec9190612fd5565b90506000602082611afd9190612f4e565b67ffffffffffffffff811115611b3c577f4e487b7100000000000000000000000000000000000000000000000000000000600052604160045260246000fd5b6040519080825280601f01601f191660200182016040528015611b6e5781602001600182028036833780820191505090505b50905060006040518060600160405280604081526020016139a6604091399050600181016020830160005b86811015611c125760038101905062ffffff818a015116603f8160121c168401518060081b905060ff603f83600c1c1686015116810190508060081b905060ff603f8360061c1686015116810190508060081b905060ff603f831686015116810190508060e01b90508084526004840193505050611b99565b506003860660018114611c2c5760028114611c3c57611c47565b613d3d60f01b6002830352611c47565b603d60f81b60018303525b508484525050819450505050505b919050565b611c74828260405180602001604052806000815250611f66565b5050565b611c818261133b565b611cc0576040517f08c379a0000000000000000000000000000000000000000000000000000000008152600401611cb790612d85565b60405180910390fd5b80600660008481526020019081526020016000209080519060200190611ce79291906121a2565b505050565b6001816000016000828254019250508190555050565b611d9c838383604051602401611d1a93929190612c27565b6040516020818303038152906040527fe3849f79000000000000000000000000000000000000000000000000000000007bffffffffffffffffffffffffffffffffffffffffffffffffffffffff19166020820180517bffffffffffffffffffffffffffffffffffffffffffffffffffffffff8381831617835250505050611da1565b505050565b60008151905060006a636f6e736f6c652e6c6f679050602083016000808483855afa5050505050565b505050565b6000611df08473ffffffffffffffffffffffffffffffffffffffff16611fc1565b15611f59578373ffffffffffffffffffffffffffffffffffffffff1663150b7a02611e196113a7565b8786866040518563ffffffff1660e01b8152600401611e3b9493929190612b75565b602060405180830381600087803b158015611e5557600080fd5b505af1925050508015611e8657506040513d601f19601f82011682018060405250810190611e8391906124e6565b60015b611f09573d8060008114611eb6576040519150601f19603f3d011682016040523d82523d6000602084013e611ebb565b606091505b50600081511415611f01576040517f08c379a0000000000000000000000000000000000000000000000000000000008152600401611ef890612c85565b60405180910390fd5b805181602001fd5b63150b7a0260e01b7bffffffffffffffffffffffffffffffffffffffffffffffffffffffff1916817bffffffffffffffffffffffffffffffffffffffffffffffffffffffff191614915050611f5e565b600190505b949350505050565b611f708383611fd4565b611f7d6000848484611dcf565b611fbc576040517f08c379a0000000000000000000000000000000000000000000000000000000008152600401611fb390612c85565b60405180910390fd5b505050565b600080823b905060008111915050919050565b600073ffffffffffffffffffffffffffffffffffffffff168273ffffffffffffffffffffffffffffffffffffffff161415612044576040517f08c379a000000000000000000000000000000000000000000000000000000000815260040161203b90612da5565b60405180910390fd5b61204d8161133b565b1561208d576040517f08c379a000000000000000000000000000000000000000000000000000000000815260040161208490612ca5565b60405180910390fd5b61209960008383611dca565b6001600360008473ffffffffffffffffffffffffffffffffffffffff1673ffffffffffffffffffffffffffffffffffffffff16815260200190815260200160002060008282546120e99190612f4e565b92505081905550816002600083815260200190815260200160002060006101000a81548173ffffffffffffffffffffffffffffffffffffffff021916908373ffffffffffffffffffffffffffffffffffffffff160217905550808273ffffffffffffffffffffffffffffffffffffffff16600073ffffffffffffffffffffffffffffffffffffffff167fddf252ad1be2c89b69c2b068fc378daa952ba7f163c4a11628f55a4df523b3ef60405160405180910390a45050565b8280546121ae90613119565b90600052602060002090601f0160209004810192826121d05760008555612217565b82601f106121e957805160ff1916838001178555612217565b82800160010185558215612217579182015b828111156122165782518255916020019190600101906121fb565b5b5090506122249190612228565b5090565b5b80821115612241576000816000905550600101612229565b5090565b600061225861225384612ec5565b612ea0565b90508281526020810184848401111561227057600080fd5b61227b8482856130d7565b509392505050565b60008135905061229281613924565b92915050565b6000813590506122a78161393b565b92915050565b6000813590506122bc81613952565b92915050565b6000815190506122d181613952565b92915050565b600082601f8301126122e857600080fd5b81356122f8848260208601612245565b91505092915050565b60008135905061231081613969565b92915050565b60006020828403121561232857600080fd5b600061233684828501612283565b91505092915050565b6000806040838503121561235257600080fd5b600061236085828601612283565b925050602061237185828601612283565b9150509250929050565b60008060006060848603121561239057600080fd5b600061239e86828701612283565b93505060206123af86828701612283565b92505060406123c086828701612301565b9150509250925092565b600080600080608085870312156123e057600080fd5b60006123ee87828801612283565b94505060206123ff87828801612283565b935050604061241087828801612301565b925050606085013567ffffffffffffffff81111561242d57600080fd5b612439878288016122d7565b91505092959194509250565b6000806040838503121561245857600080fd5b600061246685828601612283565b925050602061247785828601612298565b9150509250929050565b6000806040838503121561249457600080fd5b60006124a285828601612283565b92505060206124b385828601612301565b9150509250929050565b6000602082840312156124cf57600080fd5b60006124dd848285016122ad565b91505092915050565b6000602082840312156124f857600080fd5b6000612506848285016122c2565b91505092915050565b60006020828403121561252157600080fd5b600061252f84828501612301565b91505092915050565b61254181613063565b82525050565b61255081613075565b82525050565b600061256182612f0b565b61256b8185612f21565b935061257b8185602086016130e6565b612584816132b2565b840191505092915050565b600061259a82612f16565b6125a48185612f32565b93506125b48185602086016130e6565b6125bd816132b2565b840191505092915050565b60006125d382612f16565b6125dd8185612f43565b93506125ed8185602086016130e6565b80840191505092915050565b6000815461260681613119565b6126108186612f43565b9450600182166000811461262b576001811461263c5761266f565b60ff1983168652818601935061266f565b61264585612ef6565b60005b8381101561266757815481890152600182019150602081019050612648565b838801955050505b50505092915050565b6000612685601883612f32565b9150612690826132c3565b602082019050919050565b60006126a8603283612f32565b91506126b3826132ec565b604082019050919050565b60006126cb601c83612f32565b91506126d68261333b565b602082019050919050565b60006126ee600a83612f43565b91506126f982613364565b600a82019050919050565b6000612711602483612f32565b915061271c8261338d565b604082019050919050565b6000612734601983612f32565b915061273f826133dc565b602082019050919050565b6000612757606383612f43565b915061276282613405565b606382019050919050565b600061277a600b83612f43565b9150612785826134a0565b600b82019050919050565b600061279d602c83612f32565b91506127a8826134c9565b604082019050919050565b60006127c0600d83612f43565b91506127cb82613518565b600d82019050919050565b60006127e3603883612f32565b91506127ee82613541565b604082019050919050565b6000612806602a83612f32565b915061281182613590565b604082019050919050565b6000612829602983612f32565b9150612834826135df565b604082019050919050565b600061284c602e83612f32565b91506128578261362e565b604082019050919050565b600061286f600283612f43565b915061287a8261367d565b600282019050919050565b6000612892602083612f32565b915061289d826136a6565b602082019050919050565b60006128b5603183612f32565b91506128c0826136cf565b604082019050919050565b60006128d8602c83612f32565b91506128e38261371e565b604082019050919050565b60006128fb602983612f32565b91506129068261376d565b604082019050919050565b600061291e602f83612f32565b9150612929826137bc565b604082019050919050565b6000612941600a83612f43565b915061294c8261380b565b600a82019050919050565b6000612964602183612f32565b915061296f82613834565b604082019050919050565b6000612987600a83612f43565b915061299282613883565b600a82019050919050565b60006129aa601d83612f43565b91506129b5826138ac565b601d82019050919050565b60006129cd603183612f32565b91506129d8826138d5565b604082019050919050565b6129ec816130cd565b82525050565b60006129fe82846125c8565b915081905092915050565b6000612a1582856125c8565b9150612a2182846125c8565b91508190509392505050565b6000612a3982866125c8565b9150612a4582856125c8565b9150612a5182846125c8565b9150819050949350505050565b6000612a6a82856125f9565b9150612a7682846125c8565b9150612a81826127b3565b91508190509392505050565b6000612a98826126e1565b9150612aa482846125c8565b915081905092915050565b6000612aba8261276d565b9150612ac682846125c8565b915081905092915050565b6000612adc82612934565b9150612ae882856125c8565b9150612af38261274a565b9150612aff82846125c8565b9150612b0a82612862565b91508190509392505050565b6000612b218261297a565b9150612b2d82846125c8565b915081905092915050565b6000612b438261299d565b9150612b4f82846125c8565b915081905092915050565b6000602082019050612b6f6000830184612538565b92915050565b6000608082019050612b8a6000830187612538565b612b976020830186612538565b612ba460408301856129e3565b8181036060830152612bb68184612556565b905095945050505050565b6000604082019050612bd66000830185612538565b612be360208301846129e3565b9392505050565b6000602082019050612bff6000830184612547565b92915050565b60006020820190508181036000830152612c1f818461258f565b905092915050565b60006060820190508181036000830152612c41818661258f565b9050612c5060208301856129e3565b612c5d6040830184612538565b949350505050565b60006020820190508181036000830152612c7e81612678565b9050919050565b60006020820190508181036000830152612c9e8161269b565b9050919050565b60006020820190508181036000830152612cbe816126be565b9050919050565b60006020820190508181036000830152612cde81612704565b9050919050565b60006020820190508181036000830152612cfe81612727565b9050919050565b60006020820190508181036000830152612d1e81612790565b9050919050565b60006020820190508181036000830152612d3e816127d6565b9050919050565b60006020820190508181036000830152612d5e816127f9565b9050919050565b60006020820190508181036000830152612d7e8161281c565b9050919050565b60006020820190508181036000830152612d9e8161283f565b9050919050565b60006020820190508181036000830152612dbe81612885565b9050919050565b60006020820190508181036000830152612dde816128a8565b9050919050565b60006020820190508181036000830152612dfe816128cb565b9050919050565b60006020820190508181036000830152612e1e816128ee565b9050919050565b60006020820190508181036000830152612e3e81612911565b9050919050565b60006020820190508181036000830152612e5e81612957565b9050919050565b60006020820190508181036000830152612e7e816129c0565b9050919050565b6000602082019050612e9a60008301846129e3565b92915050565b6000612eaa612ebb565b9050612eb6828261314b565b919050565b6000604051905090565b600067ffffffffffffffff821115612ee057612edf613283565b5b612ee9826132b2565b9050602081019050919050565b60008190508160005260206000209050919050565b600081519050919050565b600081519050919050565b600082825260208201905092915050565b600082825260208201905092915050565b600081905092915050565b6000612f59826130cd565b9150612f64836130cd565b9250827fffffffffffffffffffffffffffffffffffffffffffffffffffffffffffffffff03821115612f9957612f986131f6565b5b828201905092915050565b6000612faf826130cd565b9150612fba836130cd565b925082612fca57612fc9613225565b5b828204905092915050565b6000612fe0826130cd565b9150612feb836130cd565b9250817fffffffffffffffffffffffffffffffffffffffffffffffffffffffffffffffff0483118215151615613024576130236131f6565b5b828202905092915050565b600061303a826130cd565b9150613045836130cd565b925082821015613058576130576131f6565b5b828203905092915050565b600061306e826130ad565b9050919050565b60008115159050919050565b60007fffffffff0000000000000000000000000000000000000000000000000000000082169050919050565b600073ffffffffffffffffffffffffffffffffffffffff82169050919050565b6000819050919050565b82818337600083830152505050565b60005b838110156131045780820151818401526020810190506130e9565b83811115613113576000848401525b50505050565b6000600282049050600182168061313157607f821691505b6020821081141561314557613144613254565b5b50919050565b613154826132b2565b810181811067ffffffffffffffff8211171561317357613172613283565b5b80604052505050565b6000613187826130cd565b91507fffffffffffffffffffffffffffffffffffffffffffffffffffffffffffffffff8214156131ba576131b96131f6565b5b600182019050919050565b60006131d0826130cd565b91506131db836130cd565b9250826131eb576131ea613225565b5b828206905092915050565b7f4e487b7100000000000000000000000000000000000000000000000000000000600052601160045260246000fd5b7f4e487b7100000000000000000000000000000000000000000000000000000000600052601260045260246000fd5b7f4e487b7100000000000000000000000000000000000000000000000000000000600052602260045260246000fd5b7f4e487b7100000000000000000000000000000000000000000000000000000000600052604160045260246000fd5b6000601f19601f8301169050919050565b7f546f6b656e206163686965766564206d617820636f756e740000000000000000600082015250565b7f4552433732313a207472616e7366657220746f206e6f6e20455243373231526560008201527f63656976657220696d706c656d656e7465720000000000000000000000000000602082015250565b7f4552433732313a20746f6b656e20616c7265616479206d696e74656400000000600082015250565b7f54484952445f574f524400000000000000000000000000000000000000000000600082015250565b7f4552433732313a207472616e7366657220746f20746865207a65726f2061646460008201527f7265737300000000000000000000000000000000000000000000000000000000602082015250565b7f4552433732313a20617070726f766520746f2063616c6c657200000000000000600082015250565b7f222c20226465736372697074696f6e223a20224120686967686c79206163636c60008201527f61696d656420636f6c6c656374696f6e206f6620737175617265732e222c202260208201527f696d616765223a2022646174613a696d6167652f7376672b786d6c3b6261736560408201527f36342c0000000000000000000000000000000000000000000000000000000000606082015250565b7f5345434f4e445f574f5244000000000000000000000000000000000000000000600082015250565b7f4552433732313a206f70657261746f7220717565727920666f72206e6f6e657860008201527f697374656e7420746f6b656e0000000000000000000000000000000000000000602082015250565b7f3c2f746578743e3c2f7376673e00000000000000000000000000000000000000600082015250565b7f4552433732313a20617070726f76652063616c6c6572206973206e6f74206f7760008201527f6e6572206e6f7220617070726f76656420666f7220616c6c0000000000000000602082015250565b7f4552433732313a2062616c616e636520717565727920666f7220746865207a6560008201527f726f206164647265737300000000000000000000000000000000000000000000602082015250565b7f4552433732313a206f776e657220717565727920666f72206e6f6e657869737460008201527f656e7420746f6b656e0000000000000000000000000000000000000000000000602082015250565b7f45524337323155524953746f726167653a2055524920736574206f66206e6f6e60008201527f6578697374656e7420746f6b656e000000000000000000000000000000000000602082015250565b7f227d000000000000000000000000000000000000000000000000000000000000600082015250565b7f4552433732313a206d696e7420746f20746865207a65726f2061646472657373600082015250565b7f45524337323155524953746f726167653a2055524920717565727920666f722060008201527f6e6f6e6578697374656e7420746f6b656e000000000000000000000000000000602082015250565b7f4552433732313a20617070726f76656420717565727920666f72206e6f6e657860008201527f697374656e7420746f6b656e0000000000000000000000000000000000000000602082015250565b7f4552433732313a207472616e73666572206f6620746f6b656e2074686174206960008201527f73206e6f74206f776e0000000000000000000000000000000000000000000000602082015250565b7f4552433732314d657461646174613a2055524920717565727920666f72206e6f60008201527f6e6578697374656e7420746f6b656e0000000000000000000000000000000000602082015250565b7f7b226e616d65223a202200000000000000000000000000000000000000000000600082015250565b7f4552433732313a20617070726f76616c20746f2063757272656e74206f776e6560008201527f7200000000000000000000000000000000000000000000000000000000000000602082015250565b7f46495253545f574f524400000000000000000000000000000000000000000000600082015250565b7f646174613a6170706c69636174696f6e2f6a736f6e3b6261736536342c000000600082015250565b7f4552433732313a207472616e736665722063616c6c6572206973206e6f74206f60008201527f776e6572206e6f7220617070726f766564000000000000000000000000000000602082015250565b61392d81613063565b811461393857600080fd5b50565b61394481613075565b811461394f57600080fd5b50565b61395b81613081565b811461396657600080fd5b50565b613972816130cd565b811461397d57600080fd5b5056fe416e204e465420772f20494420257320686173206265656e206d696e74656420746f2025734142434445464748494a4b4c4d4e4f505152535455565758595a6162636465666768696a6b6c6d6e6f707172737475767778797a303132333435363738392b2fa264697066735822122054440ea37b488c16b13649388a725e769520e8ccf4119dd157bde2023c6e63aa64736f6c634300080400333c73766720786d6c6e733d27687474703a2f2f7777772e77332e6f72672f323030302f73766727207072657365727665417370656374526174696f3d27784d696e594d696e206d656574272076696577426f783d273020302033353020333530273e3c7374796c653e2e62617365207b2066696c6c3a2077686974653b20666f6e742d66616d696c793a2073657269663b20666f6e742d73697a653a20323470783b207d3c2f7374796c653e3c726563742077696474683d273130302527206865696768743d2731303025272066696c6c3d27626c61636b27202f3e3c7465787420783d273530252720793d273530252720636c6173733d27626173652720646f6d696e616e742d626173656c696e653d276d6964646c652720746578742d616e63686f723d276d6964646c65273e",
  "linkReferences": {},
  "deployedLinkReferences": {}
}